:102000000080002089350000713500007135000026
:1020100000000000000000000000000000000000C0
:10202000000000000000000000000000713500000A
:10203000000000000000000071350000DD350000E8
:1020400071350000713500007135000071350000F8
:10205000B938000071350000713500007535000099
:1020600071350000E5340000713500007135000065
:1020700071350000713500007135000071350000C8
:102080007135000071350000952A0000713500009F
:10209000000000007135000071350000713500004E
:1020A0007135000071350000713500007135000098
:1020B0000000000010B5064C2378002B07D1054B1B
:1020C000002B02D0044800E000BF0123237010BDA4
:1020D0001001002000000000407C000008B5084B03
:1020E000002B03D00748084900E000BF07480368F9
:1020F000002B03D0064B002B00D0984708BDC046EC
:1021000000000000407C0000140100200C010020B1
:1021100000000000F8B5051C0E1C171C0024BC4272
:1021200010D00121281C01F0DFFC301C01F06AFAFC
:10213000281C002101F0D8FC0134301C01F062FAA7
:10214000E4B2ECE7F8BD000010B5094C094B201CC7
:102150000821032200F0FEFC211C0022064800F0AA
:1021600069F9064801F0AAF9054801F0A8F910BD7F
:102170000C06002078060020000600203001002018
:102180004801002030B5404DFA2185B0281CC90017
:1021900001F019F93D4CE122281C211C520201F0EA
:1021A000FBF8281C012101F0E3F8002809D0384988
:1021B000686C01F08DFD0A2001F024FA281C01F062
:1021C000EAF80122281C002101F05DF9E121201C20
:1021D000490202F0FBF90D20012101F02BFC042043
:1021E000012101F027FC0420002101F07DFC294998
:1021F000201C01F07FFD0121042001F075FC0A2064
:1022000001F000FA0420002101F06EFC0A2001F028
:10221000F9F9214D281C00F01DFF002804D1201CD5
:102220001E4901F067FDFEE71D49201C01F062FD1B
:10223000281C1C491C4A00F00FFD002803D1201C5B
:102240001A4901F057FD281C1421012200F056FE06
:1022500010226846164904F0A1FE281C694600F0C9
:10226000DDFE0D20012101F0E5FB201C114901F0EC
:102270002FFD0A22201C104901F08BFD201C0F4964
:1022800001F038FD05B030BDC40600203C08002038
:10229000F0720000027300000C06002022730000A0
:1022A0003A73000000C06444CDCC4C3D4F73000035
:1022B000E07200006373000093030000717300007C
:1022C00070B5A6B001F098F9002803D101F094F997
:1022D00001280ED94C4C201C00F0F6FF4B4B186027
:1022E0004B4B1A68904200D218601968421AF92ABA
:1022F00060D8FA20800001F085F90A22002102A8A6
:1023000002F07DF8434917A802F03BF802A917A88C
:1023100002F0A0F8011C05A802F056F817A801F079
:10232000E9FF6E463C22002305A808A9F27102F0DD
:102330009FF8394C3949201C01F0CAFC08A9201C1F
:1023400001F0D8FC08A804F039FF354DC2B208A945
:10235000281C00F076FD281C00F09CF8FA21281CAF
:102360004900073600F0A0F8002817D0281C17A94C
:10237000321C00F0C6FB00280DD0201C294901F0BA
:10238000A7FC17A9201C01F0B5FC0D203221032267
:10239000FFF7C0FE06E0201C234901E02349201C72
:1023A00001F0A8FC05A801F0A5FF02A801F0A2FF1A
:1023B00026B070BDFA2118604900201C00F088FF8B
:1023C000201C012100F0D4FF002815D0201C012181
:1023D00000F08AFF1649606C01F07AFC656C01F030
:1023E0000BF90A22011C281C01F0D7FC201C00F06C
:1023F000B1FF201C00F0CFFF052001F003F9201CE5
:1024000000F0B0FF75E7C046C40600207406002047
:1024100008060020787300003C0800207D7300004F
:102420000C0600208673000094730000A373000064
:102430007673000001600271704701207047002030
:1024400070478171704741717047C1727047017365
:10245000704741737047837B93431943817370477F
:10246000C079C0B27047007AC0B27047407AC0B23B
:102470007047807AC0B270470020704710B5041CC6
:102480002368201C5B689847002802D101F0D4F82B
:10249000F6E710BD10B5041C2379032B02D101F01F
:1024A000CBF8F9E7012010BD70B5041C0D1C01F03C
:1024B000A3F8061C01F0A0F8801BA84208D22368EC
:1024C000201C5B689847002804D101F0B5F8F1E7BB
:1024D000002000E0012070BD70B5061C0C1C01F04E
:1024E0008BF8051C01F088F8401BA04205D2337917
:1024F000032B04D101F0A0F8F4E7002000E0012054
:1025000070BD38B5041CA3690120002B1AD001F05E
:1025100073F8051C2368201C9B6A984700280ED07E
:1025200001F06AF8A369401B98420AD80A210120E9
:1025300001F0D6FE6423584301F064F8EAE7012075
:1025400000E0002038BD0000074BFF220833036085
:102550000023037142710382C27243820273437388
:102560008373838283617047D07300007047704724
:1025700041717047817170470171704710B5064C09
:102580008371064B0834836000230460017142713B
:102590004373037310BDC0463074000000093D0052
:1025A00008B5024800F05AFE08BDC046A406002047
:1025B00008B5024800F057FE08BDC046A40600203A
:1025C00008B5024800F050FE08BDC046A406002031
:1025D00008B5024800F00CFE08BDC046A406002065
:1025E00010B50379042B07D0032B07D0022B07D09B
:1025F000012B07D11D4B06E01D4B04E01D4B02E0F3
:102600001D4B00E01D4B81794479022200290BD03B
:10261000012906D0914206D003394A1E91414A1C35
:1026200002E0002200E0032215498B4200D90B1C76
:10263000611E4C426141C9B2022A05D0032A05D06D
:10264000012A05D1032204E0002202E0022200E078
:1026500001221C0A037244721C0C1B0E8472C3728A
:1026600002734173074800F09BFD10BD80841E007B
:102670000024F40000127A0000093D0040420F00DF
:10268000001BB700A406002010B5041CFFF776FF5E
:10269000024B201C0833236010BDC0465874000054
:1026A00008B5002102480A1C0B1CFFF7EDFF08BD0E
:1026B0007806002072B6BFF35F8FBFF34F8FBFF372
:1026C0006F8F0120704710B5041CC0690134036886
:1026D000DB689847E07F012101F0ACF9E07F012140
:1026E00001F002FA642000F08DFF012010BD80F39C
:1026F0001088BFF35F8FBFF34F8FBFF36F8FBFF3B0
:102700005F8FBFF34F8FBFF36F8F704770B5041C9F
:102710000D1C161CFFF718FF034BE66108332360FE
:10272000631CDD77201C70BD80740000F7B5041CAD
:102730000191EFF31087FFF7BDFF00281FD0E36979
:10274000114D9968DA68281C661C00F059FDF07F6D
:10275000002101F0C9F9E069019A03687F21114065
:102760001B689847E069002103681B689847009040
:10277000F07F012101F0B8F9281C00F05DFD381C44
:10278000FFF7B5FF0098FEBDA4060020F0B585B0A8
:10279000041C02910392EFF31087FFF78BFF0025D3
:1027A000A84221D0E369134E9968DA68301C00F022
:1027B00027FD621C0192D07F291C01F095F9E06988
:1027C000029A0368802111431B689847051CE06941
:1027D000039903681B689847019B0121D87F01F08A
:1027E00083F9301C00F028FD381CFFF780FF281CFF
:1027F00005B0F0BDA4060020F0B585B0041C0D1C8A
:1028000001920393EFF310820292FFF753FF002629
:10281000B04229D0E369174FDA689968381C00F094
:10282000EFFC631CD87F311C01F05EF9E069802168
:10283000036829431B689847019D061C019B039967
:102840005A18D2B2EBB29A4206D0E06929780368EE
:1028500001351B689847F1E70134E07F012101F061
:1028600043F9381C00F0E8FC0298FFF740FF301CE9
:1028700005B0F0BDA406002010B5041C807F01F057
:1028800063F90234431E9841E37F584010BD08B5F8
:10289000C07F01F029F908BD08B5431C0330C27F91
:1028A000DB7F5140181C01F01FF908BD10B50379FA
:1028B000041C022B08D00021FFF7EEFF201C002192
:1028C000FFF7E5FF0223237110BD000008238810E5
:1028D0001840031C0833DBB2984206D0044A125C4D
:1028E0008A4203D00130C0B2F6E700207047C046EC
:1028F000E0740000F8B5041CFFF7BEFF002804D008
:10290000E31DDA7F0132D2B2DA77A21DD17F231C18
:10291000083388420AD0DD7F1D214F2D00D80B21BE
:10292000DD7F6918C9B2D977D07703E0DA7F143236
:10293000D2B2DA77DA7F9F2A68D9628D520862852F
:10294000E21DD17F042904D9608D80210901014352
:102950006185D97F251C6031C9B2D9770023D3772F
:1029600028352B78DBB2002B3ED0261C2C36337852
:102970000133DBB233700B2B48D9618D3F231940F3
:10298000201CFFF7A3FF618D071C8909C9B2201C19
:10299000FFF79CFF231C71333F0119783843221C39
:1029A000C0B27032002914D01978C9B24F1C611816
:1029B0002831FFB21F70487119781378994210D3EB
:1029C00000232B700122231DDA77201CFFF76EFFF6
:1029D00007E010701178062912D9117843290FD811
:1029E000E2E70023337011E0618D094A91420DD175
:1029F00001222A70221C2C3271341370237005E0DE
:102A000000232B70238A01339BB22382F8BDC0467A
:102A1000380B0000F7B5051C74352F78041C7B1C9F
:102A20002B70002F23D1021C7232019213788D3249
:102A300012799A4206D8FFF739FFA38A01339BB275
:102A4000A38214E0C318061C7336703359793378A7
:102A50005A1C1941327001221140FFF718FF3378D8
:102A6000052B04D9019A37701378013313702B7832
:102A7000072B01D900232B70F7BD08B50379042B70
:102A800002D1FFF737FF04E00379032B01D1FFF7F1
:102A9000C1FF08BD08B5054B10219A7B0A439A7304
:102AA000034B1868FFF7E9FF08BDC046002C004241
:102AB0008806002072B6BFF35F8FBFF34F8FBFF35E
:102AC0006F8F012070473C20704780F31088BFF360
:102AD0005F8FBFF34F8FBFF36F8FBFF35F8FBFF376
:102AE0004F8FBFF36F8F704710B50379041C012B14
:102AF00005D001210022FFF749FE012323710120A7
:102B000010BD0368F7B55B68041C0F1C151C9847C3
:102B1000061E1DD0002F18D0002D16D0EFF3108305
:102B20000193FFF7C7FF00280CD0E31DDA7F297857
:102B3000914201D9DB7F2B70211C2A78381C273168
:102B400004F02CFA0198FFF7C0FF633400232370D0
:102B5000301CFEBD38B5151C1A1C041CFFF7D6FD31
:102B6000064B042208332360A31CDD77231DDA778C
:102B7000E31CFF22201CDA7738BDC046D075000068
:102B8000F7B5041CEFF31087FFF794FF002831D04E
:102B9000621C0092D07F002100F0A6FFE0690021B6
:102BA00003681B689847E069002103681B68984721
:102BB000031FDBB2061C3C2B17D8E0690021036819
:102BC0001B689847A379E071002B17D1E3796279EC
:102BD0009A4213D0E379FF2B07D10FE0638A0133C8
:102BE0009BB26382633401232370009B0121D87F51
:102BF00000F07AFF381CFFF768FFF7BDE06900219D
:102C000003681B6898472072E069002103681B680D
:102C100098476072E069002103681B689847E31DCC
:102C20000022A072DA77E51DEA7F331F9A42D5DAD7
:102C3000EB7FE069DBB20193036800211B689847D2
:102C4000019AA3180833D877EB7F0133DBB2EB7717
:102C5000E9E700000000000038B5041C081C04F07F
:102C6000F3F8104B0E4A03F001FB0F4A0F4B02F032
:102C700093FE02F071FE020C051CD2B2201C07214B
:102C8000FFF784FD2A0AD2B2201C0821FFF77EFD3F
:102C9000EAB2201C0921FFF779FD012038BDC046AA
:102CA0000000000080842E410000000080844E401F
:102CB00038B50D1C0121041CFFF738FD1C23021C34
:102CC0009A431D40131C2B43DAB2201C0121FFF74D
:102CD0005DFD201C2721FFF729FD0306F9D538BD2E
:102CE00010B50379041C022B14D0831DDB7F5BB26B
:102CF000112B08DD5A215522FFF748FD201C5C21CD
:102D00007022FFF743FD231DD97F201CFFF7D0FF62
:102D10000223237110BD38B52821041CFFF706FDDE
:102D20002379051C032B01D1030717D42379DBB2C8
:102D3000042B1BD11D4219D02421201CFFF7F6FCC7
:102D400040104042C0B2E07300F056FC6066201CA8
:102D5000FFF7C6FF201CFFF713FF07E0201CFFF75B
:102D6000BFFFA38A01339BB2A382DFE738BD000017
:102D700008B5034B1868002801D0FFF7CCFF08BD49
:102D80009006002008B5034B5868002801D0FFF7D3
:102D9000C2FF08BD9006002008B5034B98680028C4
:102DA00001D0FFF7B8FF08BD9006002010B50379E9
:102DB000041C042B18D0831DDB7F5BB2112B08DDB4
:102DC0005A215522FFF7E2FC201C5C217022FFF7FC
:102DD000DDFC25214022201CFFF7D8FC201C1021FF
:102DE000FFF766FF0423237110BD10B50379041C9F
:102DF0000020032B05D0201C6334FFF7D7FF207879
:102E0000C0B210BD10B50379041C032B18D0831D6C
:102E1000DB7F5BB2112B08DD5A215D22FFF7B6FC88
:102E2000201C5C217C22FFF7B1FC25210022201C04
:102E3000FFF7ACFC201C0C21FFF73AFF03232371A2
:102E400010BDF0B585B0041C0191171E3C2F01D9AF
:102E5000002650E003689B699847201CFFF740FF5D
:102E60002368201C5B6A9847061EF1D0EFF310839D
:102E70000393FFF71FFE002837D0621C0292D07F19
:102E8000002100F031FEE069802103681B6898474B
:102E9000E069391D0368C9B21B689847E069E17AA7
:102EA00003681B689847E069217B03681B689847A3
:102EB000E069617B03681B689847E069A17B036850
:102EC0001B689847019D019BDA19D2B2EBB29A4276
:102ED00006D0E0692978036801351B689847F2E756
:102EE000029A0121D07F00F0FFFD0398FFF7EDFD6E
:102EF000201CFFF787FF301C05B0F0BD831D10B507
:102F0000D977002A1AD0023101DAFE22DA77DB7F84
:102F10005AB20D2A04DC12331F210B4040221CE060
:102F20006021112A05DD1A1C0B321F2422400A439E
:102F300014E01A1C0E321143CAB20FE0123101DA4A
:102F4000EE22DA771F229A560D2A01DD0D22DA775A
:102F5000DA7F1F2312321A4080231A431121FFF710
:102F600015FC10BD38B50D1C041C2A1C02210523BC
:102F7000FFF742FC6A1D0223201C1921FFF73CFCCD
:102F8000EA79201C3721FFF701FC38BD13B5041C7A
:102F900000201B290BDC064BC90059180822684683
:102FA00003F0FCFF201C6946FFF7DCFF012016BD83
:102FB000F274000038B50A0A0D1C041C2C21FFF71E
:102FC000E5FBEAB2201C2D21FFF7E0FB38BDF7B589
:102FD0000F1C2E21161C041CFFF7A8FB721E051CDB
:102FE0000192002F0DD0D3B2032B0AD8331C201C22
:102FF0002F213A1CFFF700FC80235B421D43EDB2FA
:1030000001E07F231D40019A38239D43D3001D43D7
:10301000EAB2201C2E21FFF7B9FBF7BD10B50A1C40
:10302000041C00290BD03E211023FFF7E5FB201CD8
:103030003D21FFF77BFB01220243D2B205E03D2197
:10304000FFF774FBFE23021C1A40201C3D21FFF7F2
:103050009DFB10BDF7B5041CFFF735FB051E01D124
:10306000002566E0A71C201C1021FE7FFFF75EFBF9
:10307000631DD8770138C0B2FD28F1D8F87F002150
:1030800000F0D8FCE31CDA7FFF2A06D12A490A782F
:10309000032AE5D8501C0870DA77DB7F274A9900AD
:1030A0008C50002B02D1301C254908E0012B02D1A5
:1030B000301C244903E0022BD2D12349301C0422C6
:1030C00000F078FB201CFFF70BFE3C218F22201C18
:1030D000FFF75CFB6F213022201CFFF757FB5A21C2
:1030E0005522201CFFF752FB5C217022201CFFF7A9
:1030F0004DFB1649022201A803F050FF0222201CBA
:1031000001A9FFF764FF1221201CFFF73FFF201CDD
:103110000421FFF74FFF0E4A0E49201CFFF79CFDCC
:10312000201C0021FFF77AFF201C0D210022FFF751
:10313000E5FE281CFEBDC0468C060020900600203F
:10314000712D0000852D0000992D0000F074000005
:10315000CDCC4C3D0000D943437A002B04D183727F
:10316000C372C36001234372704730B585B0041C3D
:1031700002AD00680291039200F006FF6B79E179DD
:10318000227A00932068002300F0A2FF29792068AA
:10319000029A00F0C9FE206800F0ECFE05B030BDD8
:1031A00070B5041C1826FFF7D7FF2079331C434362
:1031B0000D4D0821EB18595600F0DEFCA079331CA8
:1031C00043430821EB18595600F0D6FC60790821DA
:1031D0004643AD19695600F0CFFC044B201C06CBCA
:1031E000FFF7C3FF70BDC0469C7600009C06002020
:1031F00010B5041C006800F0AFFE0023637210BD20
:1032000007B5837A00910192002B0DD09A0706D55D
:10321000EFF310835A425341C37272B604E0DA07E7
:1032200002D58289034B9A600099019AFFF79DFFAE
:1032300007BDC04600180040837A002B0BD09A07C8
:1032400004D5C37A002B06D062B604E0DA0702D5B3
:103250008289014BDA6070470018004008B50068A9
:1032600000F09CFE08BD704770470000104B114AEB
:1032700011491A6000225A711A71104B19601C21F1
:1032800019711E2199711D21597101215A72D9712B
:103290001A720B490B4B19602421197126215A729D
:1032A0009971DA712521022259711A727047C0464C
:1032B0009C06002000093D00E4070020A406002031
:1032C000E0070020B406002008B500F095F908BD1D
:1032D000002310B5436183680161C360041C00F0E2
:1032E0008BF9A06010BD000070B5041C0D1C00F02F
:1032F00083F91549061C606C00F0EAFC291C0A22BF
:10330000606C00F054FD606C104900F0E1FC311C71
:103310000A22606C00F041FD0D4D606C291C00F02C
:10332000D7FCA3680A22F11A606C00F036FD291C54
:10333000606C00F0CDFCA168E368606CC91A0A22D9
:1033400000F02BFD70BDC0463076000037760000DF
:103350003976000008B5406C014900F0CBFC08BD8F
:103360003B76000010B5041C00F046F9A06010BDCB
:1033700010B5041C002909D100F03EF96368C01A99
:10338000312803D8032000F03DF9F5E700F034F9C7
:103390006060012010BD7047F8B5051C0E1C171C9D
:1033A00069641B24301C01F013F9002806D1013C8C
:1033B000002C03D0642000F025F9F3E7686C391C79
:1033C00001F004F9F8BD002208B582644260914220
:1033D00002D0081C00F016F908BD406C08B503685F
:1033E000DB689847C0B208BD406C08B503689B68AD
:1033F0009847C0B208BD000038B5041C0D1C00F091
:10340000FBF809496060606C00F062FC291C0A222C
:10341000606C00F0CCFC0549606C00F059FC322077
:1034200000F0F0F838BDC046427600004976000052
:1034300070B5037E051C0E1C6320002B22D0281CB7
:10344000FFF7D2FF002801D165201BE0281CFFF701
:10345000CBFF0028F8D0281CFFF7BFFF682810D04A
:1034600008D858280BD06328F0D1281C311CFFF74E
:10347000C3FF06E0712804D07628E7D102E00023DC
:103480002B76632070BD38B5041C151C002901D1B2
:10349000257638BD01230376201C0021FFF7C8FFE5
:1034A0006328F9D1F4E70000034B00229A60DA6048
:1034B0001A615A617047C046C406002070479623BF
:1034C000DB0070B5041C051CC618281C1835FFF756
:1034D000F5FFB542F9D196230022DB00201CE25013
:1034E00070BD000008B5024800F066FE08BDC04689
:1034F0001007002013B5114C1149201C00F0A4FC4A
:103500001049114800F0A0FC1049114800F09CFC43
:103510001049114800F098FC1049114800F094FC43
:103520001049114800F090FC0323009301230193FC
:10353000211C00220D4800F01BFE13BDD8070020FF
:1035400000080042000C0042DC070020001000428E
:10355000E007002000140042D407002000180042B9
:10356000E4070020001C0042E807002010070020AC
:10357000FEE7000008B5034B1B68002B00D09847FE
:1035800008BDC046EC07002038B50F490F4CA142DA
:1035900004D100F055F800F053FB0BE00C4D8D42C8
:1035A000F7D00023CA18E818A24204D200680433F6
:1035B0001060F7E7FEE79042EBD0064B064A9342D5
:1035C000E7D2002204C3F9E7000000201001002028
:1035D000447C000010010020340E002008B500F0EB
:1035E0002CF8002801D100F01DF808BD014B18602F
:1035F0007047C046EC070020014B18687047C04672
:10360000F007002070B5041E08D0054B1D681E1C75
:1036100000F012F833685B1BA342F9D370BDC046BB
:10362000F007002008B5034B1A6801321A6000F059
:10363000D1FB08BDF0070020704700207047000054
:1036400070B54C4A1E21536802208B4303434A49FC
:1036500053608B69082423438B61484C484B9C8200
:103660009C8A20439882101CDA689407FCD5454A4E
:10367000012414701478E50704D5424C647864B2D0
:10368000002CF7DB01249460547864B2002CFBDB3F
:103690003D4D3C4C6560547864B2002CFBDB8225C8
:1036A000384CED016580547864B2002CFBDB9C8CB7
:1036B0008025AC439C84DC68E606FCD5334D304C59
:1036C000E562DD682E4CEE06FBD5A58C304E354309
:1036D000A584DD682A4CEE06FBD5A58C0226354371
:1036E000A584DC682506FCD5254CE4686606F8D57B
:1036F000DC68E506FCD500249460547864B2002CA4
:10370000FBDB244D1F4C656055781E4C6DB2002DBF
:10371000FADB1E6A204D35408026760035431D6257
:103720001D6A8026B5431D620323A3601B4B6360A3
:1037300053785BB2002BFBDB00230B72184A4B72F1
:103740008B72CB72174BFF211A60174B174A1B68FD
:1037500012685C01D20E214011439A06520F1202E8
:103760000B1C1343124A13854368802213434360A2
:1037700070BDC04600400041000400400C0600003F
:1037800000080040000C004001050100B805FF7D65
:10379000040A000000070300FFFCFFFF030601000E
:1037A000006CDC02000000202460800020608000AB
:1037B00000400042F0B51823434385B00292364AD8
:1037C0001625D3185D5701900391691C62D0102D06
:1037D00060D0324B324C196800291FD14422314845
:1037E00003F0E5FB30491022CA67304BC021490085
:1037F0005A50C12189005858FF26B04358501A60CA
:103800002B4A2C4B5A80237802221343237063786F
:10381000DB09012BFBD0214B01221A6001276369D0
:103820003E1CAE40334363610021019800F0A4F9CF
:103830001C4A0399AB009950072D00DC0027FB00C0
:10384000029AED1AAD00042A22D8101CBF0001F024
:1038500089FF03080D121700114B0522FF18BB69E1
:1038600012E00F4904227F18BB690DE00C4ABF1813
:10387000BB69032208E00A4B0222FF18BB6903E080
:10388000074901227F18BB69AA40151C1D43BD6171
:10389000B6B2E66005B0F0BD9C76000038080020A6
:1038A00000180040F407002004E100E000E100E01F
:1038B00005400000000C004070B50024084D0126B2
:1038C0002B69A640334206D0064BA200D358002BEA
:1038D00000D098472E610134102CEFD170BDC04646
:1038E00000180040F4070020314BFA21186810B589
:1038F000890001F041FF2F4B0138984224D82E4A0D
:103900002E4B5060186AC0210002000A09060143CC
:1039100019620024072194601160196A802209024B
:10392000090A12060A431A62254BFC211A6A0A4345
:103930001A62196AFC2292010A431A62196AA022C9
:10394000D2020A431A6200E0FEE7201C0021013483
:1039500000F070F8142CF8D11A4C63785BB2002B8D
:10396000FADB194B6380194B5A7ED209012AFAD02F
:10397000E422D2009A803F22DA70597E134AC909A4
:103980000129FAD0C0235B0100201361907000F080
:1039900023F863785BB2002BFBDB0D4A094B5A809E
:1039A0000C4BDA79D209012AFAD041225A7010BDA3
:1039B00000000020FFFFFF0010E000E000ED00E04D
:1039C00000040040000C00401E4000000040004287
:1039D000214000000048004200B5144A517E131CEB
:1039E000C9090129F9D00138042813D81969104AE6
:1039F0000A401A615A780F218A4301F0B3FE030589
:103A000009070300012102E0032100E002210A432B
:103A10005A700AE01169F0231B050B4313615378B8
:103A20000F218B4302210B43537000BD0040004225
:103A3000FFFFFFF010B51824021C201C5043274B39
:103A40001818007A40B2013046D0032944D8081C27
:103A5000211C01F087FE02331121624398569A1807
:103A6000C3011F4852681B18991840310220087082
:103A70000121914059602FE06243985618499A18E5
:103A80005268C3015B189918403106200870012163
:103A90009140596099611FE051435A561048591896
:103AA0004B68D2011118C818403006240470012058
:103AB000984048600B49521850600DE06243985698
:103AC0009A18C301064852681B1899184031022001
:103AD000087001219140996010BDC0469C7600009D
:103AE000004400411044004118235843134AF0B5E4
:103AF000131808241C5701341FD08256104ED201CF
:103B00005D6801249019231C8668AB401E420BD1CE
:103B10000E1C771EBE41401934404030A500047889
:103B20000426B4432C430470002903D105495218DC
:103B3000536002E0024E92199361F0BD9C76000042
:103B4000004400411044004118235843084A08210A
:103B500013185956013109D082560649D20152181C
:103B60005B68106AD8400123184000E000207047CD
:103B70009C7600000044004118224243F8B52D4DC8
:103B80000824AA181457031C621C50D0481C002497
:103B90000C284CD801F0E6FD071E1E1E1E1E1E1E20
:103BA0001E0A0A0A0A000124644240E0092902D1DF
:103BB000181C002103E00A2904D1181C0221FFF778
:103BC00039FF23E000240B2931D1181C0121FFF714
:103BD00031FF2CE018225343EA185268EB560120BB
:103BE000141C04405508DB01002C11D0124C1B1989
:103BF0005D1930352E780C010F21314021439A1880
:103C0000C9B22970403213781843107000240EE0B6
:103C1000094E0F279B195D1930352E789A18BE432F
:103C20003143C9B229704032137818431070201CF8
:103C3000F8BDC0469C76000000440041FEE7704796
:103C400010B5FFF751FE03F06FF9FFF7F8FF012001
:103C5000FFF7D8FC084C201C00F0F4FE201C00F0FC
:103C600069FFFEF78FFAFEF72BFB044B002BFAD00F
:103C700000E000BFF7E7C046070D0020000000008D
:103C8000F7B58A18061C0D1C01920C1C019B671BC2
:103C90009C4207D0336821781B68301C9847013458
:103CA0000028F3D1381CFEBD08B50368C9B21B68F3
:103CB000984708BD38B5051C0C1C081E07D003F03A
:103CC0007DFA2B68021C5B68281C211C984738BDB4
:103CD00008B5FFF7EFFF08BD08B503681B689847F4
:103CE00008BD000008B50249FFF7E4FF08BDC04663
:103CF0004F76000038B5041CFFF7DCFF051C201CC4
:103D0000FFF7F0FF281838BDF0B58DB0161C0BABCF
:103D1000002201900C1C1A70012E00D80A266D4654
:103D20002B35201C311C01F06BFD201CCFB2311C47
:103D300001F022FD291C041C092F01D8303700E0B6
:103D40003737FFB22F70013D002CEAD10198FFF701
:103D5000B1FF0DB0F0BDF8B5041C0D1C161E04D14A
:103D60000368C9B21B68984712E00A2A0DD10029DE
:103D70000ADA2D21FFF7B0FF6942071C321C201C14
:103D8000FFF7C2FFC01903E000E0D2B2FFF7BCFFAB
:103D9000F8BD08B5FFF7DFFF08BD08B5002A02D15E
:103DA000FFF782FF02E0D2B2FFF7AEFF08BD08B511
:103DB000FFF7F3FF08BD0000014B18607047C046D5
:103DC00004000020024B012252421A607047C04694
:103DD00004000020154A1368581C25D0013B1360CD
:103DE000002B21D172B6124A124B04329A4207D8E4
:103DF000BFF34F8F104A114BDA60BFF34F8F11E0C2
:103E00000F4B197DC807FBD5188B2021FF31920875
:103E1000520001431983DA610A4A1A801A7DD107D8
:103E2000FCD5E5E7C046FDE77047C046040000202A
:103E300000200000030200000400FA0500ED00E08D
:103E40000040004102A5FFFF01607047F7B508ACD4
:103E5000267804689D1E27686C1EA541ECB2920767
:103E600005683A4327063A432A6002680725294035
:103E70005068B501002C00D05C03294301430C437A
:103E80005460F7BD30B50368C0251C68AD0312054A
:103E90002A402243C024A40209042140114319608E
:103EA00003685A6814435C6030BD036801211A68D6
:103EB0000A431A600268116801231942FBD1D169D3
:103EC0001942F8D17047036802211A680A431A6040
:103ED0000268D3699907FCD4704703681A7ED1073A
:103EE00002D41A7E9107FCD57047036800225A83DA
:103EF00070470368187E4007C00F70470368187E3C
:103F0000C009704703688022197E52420A431A761C
:103F100070470368188DC0B2704703681A7E01208D
:103F20000242FBD01985704770B5036801268D07E2
:103F3000ED0F31401C686D070907294321431960C3
:103F400004685100034801F017FC0138C0B2207327
:103F500070BDC046006CDC02036801211A680A4388
:103F60001A600268116801231942FBD1D169194214
:103F7000F8D17047036802211A680A431A60026880
:103F8000D3699907FCD47047036802211A688A43F1
:103F90001A600268D3699907FCD4704703689A6A6B
:103FA000520A52021143996203681A7E5107FCD5E6
:103FB000986AC0B2704700000368224A30B5934245
:103FC00011D0214A934211D0204A934211D0204A65
:103FD000934211D01F4A934211D01F4A934230D1CD
:103FE0000E2319220DE0092314220AE00A231522C8
:103FF00007E00B23162204E00C23172201E00D2317
:104000001822DCB2154901209B08A0409B000860E3
:104010005B180320C021890004405D58E000FF24A4
:104020008440A5432C1CC0258540281C20435850A3
:104030008023DB011A430A4B5A805A7852B2002A75
:10404000FBDB30BD00080042000C004200100042C3
:104050000014004200180042001C004200E100E091
:10406000000C0040F8B5041C151C0E1C1F1CFFF7AB
:10407000A3FF201CFFF719FFB1001C220A406907AB
:104080002368090C0A431A60226884239375012E61
:104090001AD10821012D00D110210C4B7943186849
:1040A000C00001F069FB236807219A890140D2040E
:1040B0004903D20C0A439A8123680004C20C9889F0
:1040C000400B400310439881F8BDC046000000201B
:1040D000F7B5019308AB041C1F780D1C161CFFF7E5
:1040E0003BFF201CFFF768FFBF070C221743C022CD
:1040F000920336051640C02292022D0423683E43E7
:1041000001991540354307221D600A40802123682C
:1041100089020A435A60F7BD0120704708B5036859
:104120001322DB69984708BD10B5041C0069FFF72E
:10413000BCFE201C143001F08BFA10BD08B50069DC
:10414000FFF7CBFE08BD08B5143001F09CFA08BD9E
:1041500008B5143001F0A0FA08BD08B5143001F01C
:104160007EFA08BD08B50069FFF7D7FE012008BD3B
:10417000F7B51D1C08AB1B78041C009309AB1B781A
:10418000161C019300234360FA239B008360094BB4
:104190000F1C08330360143001F03BFA009A231C13
:1041A000C03327619A70019A1E705D70201CDA700E
:1041B000FEBDC046B87A000010B5041C0069FFF7C8
:1041C00098FE002807D02069FFF7A3FE011C201CE1
:1041D000143001F02BFA2069FFF790FE002805D07B
:1041E0002069FFF78FFE2069FFF77FFE10BDF023E7
:1041F000081C18403038434258417047F0231B01D7
:10420000194080239B0099420CD0C0239B00994207
:1042100006D080235B000520994204D0002002E0F4
:10422000072000E0062070470F231940012905D020
:1042300002394B424B410220C01A00E00020704777
:10424000F0B5031C85B00391C033041C18271878FF
:104250003B1C43431B4E0821F3185956151CFFF70E
:104260008BFC231CC133187808214743F61971567B
:10427000FFF782FC01210A1C039B2069FFF7F2FE75
:10428000291C201CFFF7BAFF291C071C201CFFF764
:10429000CBFF291C061C201CFFF7A9FF391C00902E
:1042A000331C20690122FFF7D1FD231CC333197889
:1042B000013B1A782069FFF7E5FD2069FFF703FE4F
:1042C00005B0F0BD9C760000002110B5041E8C42A4
:1042D00004D002F011FF211C01F0F2FA081C10BDFD
:1042E00010B5041E8C4203DA081AFFF7EDFF04191B
:1042F000201C10BD10B5041C006802F045FE201CF7
:1043000010BD10B5041C0068002801D002F03CFE6E
:1043100000232360A360636010BD38B5041C0D1C2E
:104320000068013102F024FF002801D021C40120DF
:1043300038BD036810B5041C002B02D043688B42C3
:1043400009D2201CFFF7E9FF002805D0A368002B45
:1043500001D122681370012010BD70B50E1C111C14
:10436000041C151CFFF7E5FF002803D1201CFFF7F4
:10437000C8FF04E0A5602068311C02F017FF201C74
:1043800070BD38B50023041C0D1C036043608360BE
:10439000994207D0081C02F011FF291C021C201CA6
:1043A000FFF7DBFF201C38BD10B50B1C041E8C4230
:1043B00008D00968002903D09A68FFF7CEFF01E012
:1043C000FFF79FFF201C10BD10B50023041C0360E5
:1043D00043608360FFF7E8FF201C10BD38B5041C64
:1043E0000D1E08D0081C02F0E9FE291C021C201C2E
:1043F000FFF7B3FF01E0FFF784FF201C38BD10B5C5
:1044000000238AB0041C036043608360081C01A978
:1044100001F0F7F8201C01A9FFF7E0FF201C0AB00B
:1044200010BDF8B5041C0F1C866801D100250FE0F3
:104430000125002A0CD09619311CFFF77AFF0028BD
:10444000F4D02268A368391CD01802F0AFFEA66031
:10445000281CF8BD0B1C10B509689A68041CFFF7EE
:10446000E0FF002802D1201CFFF74BFF201C10BDED
:1044700038B50D1C002A14D0002912D081688B4257
:1044800002D300232B700CE0541EC91A8C4200D9B1
:104490000C1C0168221CC918281C02F096FE00237F
:1044A0002B5538BD3F20704713B502686B46D97154
:1044B00007335468191C0122A04716BD08B50069CE
:1044C000022100F03BFC08BD08B50069032100F0A3
:1044D0004BFC08BD38B50D1C041C131C00690321DE
:1044E0002A1C00F03DFD002801D10123636038BD86
:1044F00010B5054C23685A1C04D10368DB68984743
:104500002060031C181C10BD58000020074A08B585
:104510001368591C04D0012149421160181C03E0A2
:104520000069022100F00EFD08BDC04658000020C1
:1045300008B503780349023303704222024800F0B1
:10454000C5FD08BD14000020070D002010B501783E
:10455000031C42780020A12908D1212A2FD1184814
:104560001849072200F0B2FD012028E0212926D1B8
:10457000202A05D113490722114800F03BFC04E032
:10458000222A10D19A780F4BDA710E4B96221968B5
:10459000D200914210D1DC7901231C400CD1FA20C9
:1045A000FFF70AFC0AE0232A09D1DA789B78120285
:1045B0001A43054B1A6002E0FFF704FC002010BD0F
:1045C000070D0020080000201000002070470000A8
:1045D00010B5FFF711F8F423FF330024984207D9F0
:1045E000044B0A20DC79631E9C41E4B2FFF70AF811
:1045F000201C10BD08000020064BFA21890099609C
:10460000054900220831196004495A6019611A7677
:104610007047C0463C080020E87A0000070D0020E3
:1046200070B5C2B219495301CB189E68184DC02409
:104630002E40A40526439E60164E8001096830185E
:10464000083258605201505C0726B04301263043BF
:1046500050549E6935402C439C610F4C5C61505C0A
:104660007024A0431024204350549C680B488A189F
:104670002040802464032043986098684021800B88
:104680008003986053790B43537170BD100D002067
:10469000FFFFFF8F280B002064090020FF3F00F080
:1046A00038B5041C08CC01211A78051C0A431A707D
:1046B0008022201C0021520002F079FC2B689A789D
:1046C000D107FCD45C6238BD134BF0B51B6899036D
:1046D0005A029B01C90ED20E5B0F1F2900D1052182
:1046E0001F2A00D11D22072B00D1032304688E014D
:1046F000278D0A491F2539403143218501682A4009
:104700000C8DAC4322430A8502681903108D044BBB
:1047100003400B431385F0BD246080003FF8FFFF8A
:10472000FF8FFFFFEFF3108303600123436072B636
:1047300070470368002B02D162B6BFF36F8F7047DA
:1047400037B50569041C6846002D12D1FFF7EAFF52
:10475000019B013B03D3621DD57FEDB2F9E76846AB
:104760000193FFF7E6FF0020854217D0206AE36936
:1047700013E0FFF7D7FF019B0025013B04D3221C68
:1047800034321578EDB2F8E768460193FFF7D1FFB0
:104790000020854202D0206BE36AC01A3EBD0000B3
:1047A000436810B51A68037A01215B01D318FF33FF
:1047B0009A7A0A439A72037A42685B01D318C268F4
:1047C0009C6891040B4A090922400A439A60037AC3
:1047D00042685B01D3189A684021920B92039A6059
:1047E00043681A68037A08335B01D3181A790A43BD
:1047F0001A7110BDFF3F00F0F7B50569041C0E1CCF
:10480000171C6846002D1FD1FFF78CFF019B013B51
:104810005A1C06D0621DD17F5A1E00293AD0131CA3
:10482000F6E768460193FFF784FF0025E369BD4280
:1048300035D0226A934232D25A1CE261A269D3185F
:104840001B7873550135F1E7FFF76CFF019B013BC6
:104850005A1C08D0221C343215785A1EEDB2002D95
:1048600018D0131CF4E768460193FFF762FF002598
:10487000E36ABD4226D0226B934241D322E0621DFF
:104880000021D17730321678581E8E4214D1031C85
:104890005A1CF4D168460193FFF74BFF38E0226AB7
:1048A000934235D10023E361012323616846FFF77A
:1048B00039FF019B013BEBE71170201C0193FFF7CF
:1048C0006FFFF6E7226B934222D10023E36223615C
:1048D0006846FFF727FF019B013B5A1CDAD0221CD8
:1048E00034320021117001321678581E8E4201D1E7
:1048F000031CF2E71170201C0193FFF751FFEAE758
:104900005A1CE262A26AD3181B7873550135AFE7CF
:10491000281CFEBD37B54368027A1B680832520175
:104920009A18041CD0790123FF21184253D0D37167
:10493000A068656962680140002D20D149015218C4
:10494000916863618904890C2162A16A684651609B
:10495000621DD377FFF7E6FE019B013B5A1C33D063
:10496000221C34321178581EC9B20132002903D0FA
:1049700001930123137023E01170031CEEE74B0138
:10498000D3189A68A5699204920C2263002262618E
:1049900068465D60FFF7C6FE019B013B01E01170B8
:1049A0002B1C591C10D0221C343201201070621DA7
:1049B000D17F5D1EC9B230320029F0D00193107052
:1049C0006846FFF7B6FE06E068460193FFF7B1FEC2
:1049D000201CFFF7E5FE37BD37B500236C46E371B9
:1049E0000734201C0D1CFFF7A3FD2B681818286046
:1049F00000F0A6FE211C00F05CFE2B681818286051
:104A000020783EBD03290BD10D4BB2221B6852000A
:104A1000985C8021494201439954022168220CE0AC
:104A200001290CD1064B92221B685200985C802110
:104A300049420143995402212822FF329954704778
:104A4000100D002038B5304B00240121051C20201A
:104A50001C70FEF7EFFF20200121FFF745F82B4BDC
:104A60001F2001211C70FEF7E5FF1F200121FFF729
:104A70003BF8274B2021DA6901200A43DA61254BF4
:104A800006241A7802431A70234B0F221978914397
:104A9000197019782143197020490C782043087047
:104AA00019780A401A701A7860210A431A701C4B50
:104AB0001C4A5A805A78D209FCD11B48FEF796FD51
:104AC0001A4C201CFFF7ECFD201CFFF7FDFD2368AE
:104AD0007F2219780A401A701A7804210A431A7042
:104AE0001A890C218A431A81C121114A8900505820
:104AF0000002000A5050802111601A7802210A43F6
:104B00001A7001232B7038BD240B00200C0D0020DF
:104B100000040040584400413C44004159440041D5
:104B2000000C00400640000059550000100D002008
:104B300000E100E00078002810D0094B01211B683B
:104B40001A898A431A811A8B08210A431A831A8BFD
:104B500004210A431A83034B00221A607047C0469F
:104B6000100D0020140E00200F4B9A69920B920337
:104B70009A611B680222FF331A729879802252428E
:104B800002439A711A7A9007FCD5084B081C997A4F
:104B90007F221040914301439972997A80225242B8
:104BA0000A439A727047C046100D00200050004121
:104BB00010B50B790C1C002B0BD1081CFFF7C6FCA1
:104BC000002804D1094B9A69920B92039A61012043
:104BD0000BE000F0B5FD211C00F09FFD0028F6D190
:104BE000024B9A69920B92039A6110BD100D00203E
:104BF000F8B50D1C832A16D1CAB242495301CB180D
:104C00009C694148AD012040C024A405204398611F
:104C10003E48083245195D610B685201D15C702035
:104C20008143402065E0022A45D1382000F0EDFCA8
:104C3000374B344F8026036076000023421D036209
:104C400003614361C36147608560C660D3772F32DB
:104C5000041CC36203631370301C537002F08AF9A2
:104C6000A061301C02F086F9FF232A1C1A40520171
:104C7000A062BF18B968244A07260A40C0218905E6
:104C80000A43BA60A1686268194012680831490194
:104C9000885CAD00B043032630438854A168626845
:104CA0000B405B01A169D3185960201CFFF778FD08
:104CB000184BEC5025E0822A1ED1CAB2114953018B
:104CC000CB189C691048AD012040C024A4052043A6
:104CD00098610E48083245195D610B6852019918B8
:104CE0000C798020404220430871D15C70208143C0
:104CF00030200143D15404E0002A02D1081CFFF700
:104D00008FFCF8BD100D0020FFFFFF8F640900200D
:104D1000187B0000E80C002038B5051C0124064B68
:104D2000A200D258002A06D0211C281C0134FFF70B
:104D30005FFFE4B2F3E738BD5C00002008B5084B24
:104D40008A00D058002803D003689B68984706E083
:104D5000C9B2044B4901591888688004800C08BD09
:104D6000E80C0020100D002010B50C1CFFF7E6FF2A
:104D700000280CD0064BE1B21B68083149015918D4
:104D80004A7980235B4213434B710223CB7110BDE0
:104D9000100D002070B5CAB2134B1448540189019C
:104DA0005918031959609D68114908322940802516
:104DB000AD022943996099684026890B890399605F
:104DC0000368510159180D7935430D715101591876
:104DD00089794D06FAD551015918C979CD07FAD507
:104DE0000419A068C0B270BD280B0020100D00206F
:104DF000FF3F00F038B50C4B141C1B680D1CFF3333
:104E00005A7940210A435A710021FFF7C3FFA0429B
:104E100000D9201C0023A34204D0044A9A5CEA541F
:104E20000133F8E738BDC046100D0020280B0020E4
:104E300010B5C9B20C48490143189A689204920C03
:104E40003F2A08D9141C9A68403CA404920BA40C75
:104E50009203224302E09A68920B92039A604118EF
:104E60008868C0B210BDC046100D0020F0B51C1CF3
:104E70002F4B85B01B68061C0D1C0292002B51D0D5
:104E80002C4F3978C9B2002902D11F20FEF72CFE21
:104E900064233B70284BAA00D058002805D0036833
:104EA00002995B68221C984740E0301C291CFFF7E0
:104EB00045FFA04204D2301C291CFFF73FFF041C11
:104EC000291C301CFFF7B4FF1C4FE9B24A010191C5
:104ED000396803928B18FF335A7A01210A43184923
:104EE0005A72AB01C9180298221C02F057F8002C24
:104EF0001BD0301C291CFFF721FF002815D1019B76
:104F00003A6808335B01D3181979402001431971BD
:104F10000121D97103995318FF339A7A01210A4369
:104F20009A7202E00120404200E0201C05B0F0BD72
:104F3000140E00200C0D0020E80C0020100D0020A5
:104F4000280B002013B56C460734221C0123FFF701
:104F50008DFF012801D1207801E00120404216BDDB
:104F6000F0B51C1C3F4B85B01B680E1C0292002B39
:104F70006AD08023DB019C4266D83B4D2978C9B2B8
:104F8000002902D12020FEF7AFFD642300222B7000
:104F90000092002C56D0354DF7B22B6801933B1C84
:104FA0000833019A5B01D3189B79DB091AD0304B87
:104FB0003049186800F0E0FB2F4B1721584300F0F0
:104FC000DBFB3B1C0833019A5B01D318DB799A07A2
:104FD00008D42A4B9A5D002A38D1421E002835D0C9
:104FE000101CEEE7254B00229A55251E3F2D00D9B7
:104FF0003F25234AB301D318181C02992A1C039396
:1050000001F0CCFF194A7B01D318039AA9045A6115
:105010009A69890C920B92030A439A613B1C019A8C
:1050200008335B01D3180222DA7159798022524287
:105030000A435A71009B029A5B1952190093641B30
:105040000292A6E700980BE0012008E001229A55A1
:105050007B01ED18AB69101C9B0B9B03AB614042BD
:1050600005B0F0BD140E0020240B0020100D002010
:105070000000002040420F00701101005C09002078
:105080006409002070B50E4D1C1C8B01ED18281C06
:105090000E1C111C221C01F081FFF6B20949760199
:1050A00089194D618A69084B201C13408B618B69FB
:1050B000A2049B0B920C9B0313438B6170BDC046F3
:1050C00064090020100D0020FF3F00F0F7B5114BE0
:1050D00001901B780F1C141C002B19D10E4B1E784D
:1050E000002E01D1151C08E00C4D0D482E888019AA
:1050F000361901F053FF2E800AE0002D08D0BA19AE
:105100002B1C01980021FFF7BDFF36182D1AF4E77C
:10511000201CFEBD060D0020040D00205A090020B1
:1051200059080020F8B50E1C00AF151E012D28D916
:10513000D31DDB08DB006A46D21A9546081C02F034
:105140003DF801306C46400003232070637002225A
:10515000AA420ED23378002B0BD0511CC9B20136B3
:10516000A354A94204D0002302326354D2B2EFE721
:105170002A1C0548211CFFF7A9FF431E9841C0B215
:1051800000E00020BD46F8BD070D002008B5044B27
:1051900000221A70034B04491A88FFF797FF08BDD5
:1051A000040D00205A09002059080020F0B5204ABB
:1051B00087B001230026009102A91370051C0296F6
:1051C000FFF70AFC03AC092701903A1C201C311C94
:1051D00001F0EDFE022363708023E371FA23237252
:1051E000029B0122DB196380019B62712371104ACB
:1051F000009B27701670BB4205D1281C211C1A1C6D
:10520000FFF764FF11E00B4B01221A700A4B211CBF
:105210003A1C281C1E800296FFF758FF281C02A982
:10522000FFF7DAFB281CFFF7B1FF012007B0F0BD44
:10523000060D0020040D00205A09002070B5CE781C
:105240008AB0051C0C1C022E08D1C9882348FFF720
:10525000ADFF031C581E8341D8B23DE000F070FA48
:10526000211C00F03BFA002803D0C3171B1AD80FEB
:1052700032E0012E04D1E2881949112A27D823E00F
:10528000032E29D1A278002A05D11649E2880B788D
:10529000934219D81BE0022A03D1A279281C124993
:1052A00004E0012A05D1A2791049281CFFF73AFF32
:1052B00012E0032A10D100F043FA01A900F01EFA0F
:1052C000A279281C01A9F1E7D2B2002A00D10A78FC
:1052D000281CFFF7FBFE01200AB070BD070D00205F
:1052E000367B0000327B0000487B0000287B0000FA
:1052F00073B5051C48780C1C0B2878D800F032FADE
:10530000081C7728773E4306474B686F00206FE004
:10531000097801AA002903D111705170281C09E0F5
:10532000002313705370334B1B78012B00D1137083
:10533000281C002102234FE08A780023012A04D18F
:1053400001AA137053702C4BEEE72A4A137049E000
:105350008E78012E07D1284B01AA00211E701170F2
:10536000281C331C38E0002E08D1224A0123137078
:10537000224A9169890B8903916138E0A178281C40
:10538000FFF7F2FB33E0281CFFF758FF30E0281C42
:1053900000211B4A1FE00A780020D30628D1281CD0
:1053A000FFF7BAFCA2781549154B02241A600A6867
:1053B0002A23FF33D05C2043D0544A20FF30145CB2
:1053C00001231C4314548A69920B92038A610EE0F4
:1053D0000C4A281C00210123FFF754FE07E08A78BD
:1053E000084B1A60054B9A69920B92039A6101204F
:1053F00076BDC04658080020050D0020100D002085
:10540000140E0020080D0020F8B54B4B071C1C782B
:10541000002C00D08EE0494D2868838B19070DD5EC
:10542000201CFFF7FDF82B6810201A1CFF32917A20
:1054300001439172424A146008229A832B689A8B26
:1054400050071FD504229A833E4B1A78002A0AD0AF
:105450001A78013AD2B21A701B78002B03D120209F
:105460000121FEF741FB384B1A78002A0AD01A783E
:10547000013AD2B21A701B78002B03D11F200121F0
:10548000FEF732FB2B68FF331A7AD10626D510229D
:105490001A725A7940210A432C495A710A786023BA
:1054A000381C1A4202D1FFF723FF01E0FFF780FB0F
:1054B000002806D02B688022FF33997952420A4394
:1054C00001E0234B20229A712B68FF331A7A500691
:1054D00004D540221A72597A0A435A722968FE2367
:1054E0000E8C00241E40E1B2002E23D0321C01237A
:1054F00022411A4216D0221C286808325201821812
:10550000D079184203D1D279DA401A4207D0114B30
:10551000A200D058002809D003681B6898470123CF
:10552000A3409E430134092CDDD103E0381CFFF772
:1055300069FAF4E7F8BDC046040D0020100D002004
:10554000140E0020240B00200C0D0020280B00203E
:10555000FF500041E80C002008B50248FFF754FF57
:1055600008BDC046070D0020014A024B1A60704773
:1055700000500041100D0020F0B58FB00D1C0292BC
:1055800035D0131C023B222B33D80A2A33D10028F2
:1055900031DA01234642039305AC0194002E12D068
:1055A000301C029900F02CF9301C0F1C029900F0FD
:1055B000E3F8631C061C092F01DC303700E0573785
:1055C00027701C1CEAE7019A9442E9D0039A2B1C2D
:1055D000002A02D02D226B1C2A70019A944204D911
:1055E000013C22781A700133F7E700221A70281C58
:1055F00005E0002003E00022061C0392CCE70FB078
:10560000F0BD08B5FFF7B8FF08BD08B501F0B2FC62
:1056100008BD10B50021041CA42201F0C8FC221C06
:10562000A4320023201C1360536010BDF8B5051C84
:10563000A4352E68041C0F1C701CA42100F0E0F897
:10564000231CA8331B68994201D0A7552960F8BDD7
:10565000021C0023A432A83013600360704738B5E1
:10566000021C041CA834A43223681268934207D099
:10567000C55CA421581C00F0C3F8281C216001E07F
:105680000120404238BD031CA433A8301A680368C7
:10569000D01A00D5A4307047031C021CA833A432D2
:1056A0001B681268934201D0C05C01E001204042B7
:1056B000704770B544680E1C0025002C09D0236883
:1056C000201C5B68311C9847002804DB2D18E46817
:1056D000F3E7281C01E00120404270BD38B5446862
:1056E0000D1C002C08D02368201C9B68291C98479F
:1056F000002802D1E468F4E7201C38BD38B54468BE
:105700000D1C002C07D02368201C291CDB6898473F
:10571000E4682D18F5E72C7038BD38B544680D1CC9
:10572000002C08D02368201C1B68291C98470028DF
:1057300003D1E468F4E7201C00E0012038BD00003C
:10574000064B0122196810B51140054805D1022405
:1057500004700424447041601A6010BD200E0020C3
:10576000180E002002B4714649084900095C49003E
:105770008E4402BC7047C046002934D00123002269
:1057800010B488422CD301242407A14204D28142C0
:1057900002D209011B01F8E7E400A14204D28142D0
:1057A00002D249005B00F8E7884201D3401A1A434D
:1057B0004C08A04202D3001B5C0822438C08A04284
:1057C00002D3001B9C082243CC08A04202D3001B3A
:1057D000DC082243002803D01B0901D00909E3E7B4
:1057E000101C10BC7047002801D00020C04307B433
:1057F000024802A14018029003BDC046D900000033
:105800000029F0D003B5FFF7B9FF0EBC4243891A57
:105810001847C046002941D010B4041C4C40A4468F
:1058200001230022002900D54942002800D540422A
:1058300088422CD301242407A14204D2814202D2FF
:1058400009011B01F8E7E400A14204D2814202D21F
:1058500049005B00F8E7884201D3401A1A434C081C
:10586000A04202D3001B5C0822438C08A04202D352
:10587000001B9C082243CC08A04202D3001BDC087A
:105880002243002803D01B0901D00909E3E7101CBB
:105890006446002C00D5404210BC7047002806D05A
:1058A00003DB0020C043400801E08020000607B46D
:1058B000024802A14018029003BDC0461900000032
:1058C0000029EBD003B5FFF7A7FF0EBC4243891AAE
:1058D0001847C0467047C0468446101C62468C4636
:1058E000191C634600E0C0461FB500F041FC0028CB
:1058F00001D40021C8421FBD10B500F071FB404229
:10590000013010BD10B500F033FC002801DB002091
:1059100010BD012010BDC04610B500F029FC0028C4
:1059200001DD002010BD012010BDC04610B500F003
:10593000A1FB002801DC002010BD012010BDC046E5
:1059400010B500F097FB002801DA002010BD0120FF
:1059500010BDC0460000000038B50E4B0C4A041CB8
:105960000D1CFFF7EDFF002804D1201C291C01F0BD
:1059700037FA38BD074B064A201C291C00F006FFE9
:1059800001F02EFA80231B06C018F2E7C046C0467D
:10599000000000000000E041F0B5564644465F4676
:1059A0004D46F0B41F1C0B031B0B98464B0087B0F1
:1059B000041C81465B0DC80F161C9A460090002BF4
:1059C00051D06A4B9A4531D08022414652030A4356
:1059D000630FD2001A43664B90460025E2009146C1
:1059E0009A44002402953B031B0B9B46FD0F7B0052
:1059F000311C5B0D019560D05C4A934254D08021EC
:105A0000584649030143720FC9001143584A8B4657
:105A10009B18F1000020009A04436A4003920F2C67
:105A200000D9ADE0534EA4003459A7464046044384
:105A30006ED1002102250824884689460295D2E7C6
:105A4000009C0298C34649460194022864D003286A
:105A500000D1ABE2012800D038E2019A00240240D4
:105A60000025A14660E0434623434AD04046002833
:105A700000D1C0E101F03AFA031E272B00DDB3E1AB
:105A800028210D1A211C083B4246E9409A400D1C72
:105A90001543221C9A40A8469146374B00251B1AF5
:105AA0009A46002402959EE75A4616430320002E8C
:105AB000B1D1B34600210220ADE75A4632431BD094
:105AC0005B46002B00D18AE1584601F00FFA2728E7
:105AD00000DD7DE12822171A011C321C08395B46C3
:105AE000FA408B40171C1F43331C8B40BB46191CCC
:105AF000214B1B1A00208EE70027BB460021012006
:105B000089E70020012504248046814602956AE742
:105B100003250C24029566E7019C0394039D012252
:105B20002A400024114DA146002000212403260B09
:105B30000C0D2405114B34432D0523402B435B00F2
:105B40005B08D207191C4846114307B03CBC90467D
:105B50009946A246AB46F0BD00228024240391461C
:105B6000024DE1E700240025A146DDE7FF07000024
:105B700001FCFFFF5C7B00000DFCFFFFFFFF0F80BF
:105B80005546ED1A0495D84500D953E100D14EE1B0
:105B9000049C0025013C4E4604944746A9465846BD
:105BA00003020C0E1C430902250C23041B0C00915C
:105BB000381C291C0193FFF7DFFD019983464143FF
:105BC000381C8A46291CFFF71BFE330C09041943B5
:105BD0008A450CD95B460919013B8C4200D947E143
:105BE0008A4500D844E1022252429344091953469F
:105BF000CB1A181C291C9846FFF7BEFD071C0198FC
:105C0000291C784382464046FFF7FAFD36040B0410
:105C1000360C33439A4509D91B197A1E9C4200D988
:105C200024E19A4500D821E1023F1B195E46320467
:105C30001743380CBB46009E009F51463F0C320470
:105C40005B1A5946BA46120C0F043F0C9046514657
:105C50007A434F434146414356467043CF19160C91
:105C6000BE19B14202D980277F02C019310C12043B
:105C70003604120C4018B618834200D2C4E000D19A
:105C8000BEE0191A4846861BB145BF417F42CF1B73
:105C9000A74200D113E1291C381CFFF76DFD0199C3
:105CA00002904143381C8946291CFFF7A9FD330C9B
:105CB0000904194389450CD9029B0919013B8C42FF
:105CC00000D9FFE0894500D8FCE0029F0919023F96
:105CD00002974F46CF1B381C291C0597FFF74CFD38
:105CE000071C0198291C784381460598FFF788FD19
:105CF00036040904360C0E43B14509D936197B1E0A
:105D0000B44200D9E0E0B14500D8DDE0023F3619E9
:105D1000029D4946761A290439430B0457460A0C5A
:105D20001B0C40464546584355437B437A43EB188A
:105D3000070CDB199D4202D980256D0252191D0CFA
:105D400000041B04000C52191B18964235D300D1D5
:105D5000FCE001231943049E994FF519002D00DC46
:105D6000A1E0480709D00F230B40042B05D00B1DE1
:105D70008B42894149428B44191C5A46D20107D5AE
:105D8000904B5C46049E80271C40FF00A346F519FB
:105D90008D4B9D427ADD039C0122224000248B4DD5
:105DA000A146C1E680242403474627424CD13C4308
:105DB0002403240B009A854DB6E63619481EB442DA
:105DC0005ED9011C9642C4D1009E9E42C1D1C2E759
:105DD000031C283B311C99408B46002188E6301C6F
:105DE00001F084F8203072E6283B211C9940002203
:105DF0008846914651E6201C01F078F820303BE6B9
:105E00000021B14500D33DE7009F5A46B944B9454A
:105E1000BF417F423F19FB18013A9C421ED2984273
:105E200000D97EE000D1B5E0191A93462AE78945EA
:105E300000D8ADE64846464642467708D3074608AE
:105E4000C0071E438146AAE65846204212D10443A9
:105E500024032A1C240B89465C4D65E6A342E3D14A
:105E6000009F4F45DBD9211A93460BE7171CDDE64F
:105E70009B46BCE63C432403240B009A534D53E657
:105E8000B24259D800D18AE0011C62E75F46C908D6
:105E90007B07039E0B437C026D0501229946240B70
:105EA0006D0D324040E64A4B049FDB1B382B10DD62
:105EB000039C0122224000240025A14634E6012152
:105EC000494248E7029304E71F1C21E7019C039421
:105ED00041E71F2B40DC3F48049F0C1C3A185846F2
:105EE0009140DC40904020430A1C511E8A41011C15
:105EF00011435A46DA40131C480709D00F220A40C2
:105F0000042A05D00A1D8A42894149425B18111CA6
:105F10001A0234D5039C0122224000240125A14607
:105F200002E6009F02214942B9448B44B9458941A8
:105F300049420919CB18A4E6009D881E6900A942B0
:105F4000AD416D422C19361900913AE7002B00D073
:105F500033E70024009437E71F4A049C5D46121B78
:105F6000D5402A1C202B1FD01C4E5F46A3199F40F2
:105F70003B1C19434B1E994111430023BCE75A07B0
:105F8000C9080A43039F91465B0201221C0B3A4059
:105F90000025C9E54E45C4D89346002172E6009F0E
:105FA0009F42C9D3011C0FE70023E2E780242403AA
:105FB0005F463C432403240B019A8946034DB3E515
:105FC000FF030000FFFFFFFEFE070000FF070000C9
:105FD00002FCFFFF1E040000E2FBFFFF3E04000086
:105FE000F0B55F4656464D464446F0B40D1C041CC1
:105FF0008046E80F814618030F03000B3F0B83B068
:1060000084461B48009749005E00DF0F490D924609
:10601000760DBB4681420CD01548864210D0012037
:10602000B14215D003B03CBC90469946A246AB465F
:10603000F0BD009F01202743F4D10D488642EED1E8
:10604000604602430120002AECD10120B142E9D18F
:10605000009B6345E6D1D045E4D1D94506D000295F
:10606000E0D11C43201C441EA041DBE70020D9E7FF
:10607000FF070000F0B55F4656464D464446F0B473
:10608000CD0FDE0FAC461D032D0BB146374E0F036F
:106090004C00AB465D0080463F0B640D92466D0D93
:1060A000B44232D0314EB54235D0002C0ED13843F7
:1060B00041424141081C002D0BD0002919D1CC458B
:1060C0002DD0654668420123184318E0002DF6D113
:1060D000281C59460A4353425341002806D1002B3D
:1060E000EDD0634658420123184308E00020002BFE
:1060F00005D14A46504250414042012318433CBC1E
:1061000090469946A246AB46F0BD3E1C0643C9D018
:1061100002204042F3E75E461643C6D0F8E7AC42A1
:1061200007DC0BDA614648424841404201231843EC
:10613000E5E76646704201231843E0E75F450AD869
:106140000ED000205F45DAD2654668426841404281
:1061500001231843D3E76246504201231843CEE798
:10616000D045F8D80020D045EED3C8E7FF0700009F
:10617000F0B556464D4644465F46F0B40D1C83B01C
:10618000041C0190E80F814618030F03000B3F0B1E
:1061900084463548009749005E00DF0F490D92465E
:1061A000760DB846814234D02F48864236D0002939
:1061B00018D0002E1FD1341C67463A435342534136
:1061C000002C1FD00020002B05D1424650425041E8
:1061D00040420123184303B03CBC90469946A24676
:1061E000AB46F0BD0098044360426041041C002EA1
:1061F000E2D00028E9D1C14515D04F4678420123AD
:106200001843E8E7002BF6D04B46584201231843C9
:10621000E1E7009F02202743DDD1C5E76746022062
:106220001743D8D1C3E7B14204DD4A4650420123A7
:106230001843D0E7B14207DB00986045E4D80AD0A4
:10624000009F00206745C6D24F46784278414042C1
:1062500001231843BFE7019A5245D5D8019A00207F
:106260005245F1D3B7E7C046FF070000F0B55646E8
:1062700044465F464D46F0B41F1C0B031B0B9A4669
:106280004B0087B0041C80465B0DC80F161C0293A0
:106290008146002B68D0694B0299994232D0802206
:1062A000534652031A43D200630F1A439246644A7C
:1062B000E000891880460291002400253B031B0B57
:1062C0009B467800FB0F321C400D039300D175E014
:1062D0005A4B984269D08022594652030A43730FA1
:1062E000D2001A43564B9346C018F200002303997C
:1062F0004E4671401C430F2C00D9A9E0514EA4001A
:106300003459A74653461C4300D087E00025AA46CF
:10631000A84608240225D1E74946022D6CD0032D5A
:1063200000D117E2012D00D058E10D40EDB200245C
:10633000A9460023A0460020002125030A0D1C05C4
:106340002D0B1205404B2A43134023435B004C4660
:106350005B08E207191C4046114307B03CBC90465D
:106360009946A246AB46F0BD5346234350D0534610
:10637000002B00D184E1504600F0B8FD031E272B0E
:1063800000DD76E128210D1A211C083B5246E94028
:106390009A400D1C1543221C9A40AA4690462B4B4E
:1063A00000241B1A0293002588E75B461E43032343
:1063B000002E9CD1B3460022022398E75B4633436C
:1063C00021D05846002800D14EE100F08FFD27284B
:1063D00000DD42E128210F1A021C311C083A5B46FD
:1063E000F94093400F1C1F43331C9340BB461A1CBB
:1063F000164B181A00237AE701230B400024994614
:10640000A0460E4B97E70027BB46002201236EE70C
:10641000002104248A46884601254FE70C240325E1
:106420004CE700258024A9462403A846034B82E7B5
:10643000DA46904603991D1C6FE7C046FF0700002F
:1064400001FCFFFF9C7B0000FFFF0F800DFCFFFFA6
:10645000029F160C381804904046070C0004000CEC
:106460001204120C031C5343041C3D1C744355437B
:1064700098463B1C73436419A44644460293230C7C
:1064800063449D4204D9029D802464022D19029523
:106490001D0C039545462C041B04240C1C19059463
:1064A0005C46230C051C58432404240C8446381CE9
:1064B000604365435F438146CC44280C6044BB463F
:1064C000814502D980277F02BB442D04070C2D0C87
:1064D000000440195546BC462F04E3448446280C6A
:1064E0003D0C2F1C5743B8462F1C77434243B946F7
:1064F00047463F0C9144BA46D14446434A4502D9E7
:1065000080225202B6184F463A0CB6183A04474653
:106510003F043F0CB8462F1C67435D434443584338
:1065200065190190380C2D184244B846AC4204D984
:10653000019880235B02C0180190039C029F201CDD
:106540006044C0196045A44147466442A4462B04F8
:106550003C049946240C4C44A046D8448018C246BA
:10656000E24490429241574652429146F219E24526
:10657000BF417F424B46BC46D845BF41D4187F42FD
:1065800063461F432D0C7F19B24292414C45AD41E9
:1065900052426D421543019E7D19AB19E20D5B021B
:1065A000059F134342023A439A46531E9A41C30D34
:1065B000101C18436402204380465046C0010DD58C
:1065C000454601225646049C6B082A401A43F307AD
:1065D00001341A43760804949046B246049E634FF1
:1065E000F319002B61DD404640070BD00F224446D3
:1065F0002240042A06D042460432424580414042AD
:10660000824490465546ED0107D5594B5646049FA6
:1066100080201E40C000B2463B18564A934200DD1F
:10662000EAE644465546E2086807104301226C0238
:106630005B050A408046240B5B0D91467BE6DA46FB
:1066400090461D1C69E680242403574627421CD12E
:106650003C432403240B484B6DE6031C283B311CB0
:1066600099408B460022C3E6301C00F03FFC2030EE
:10667000ADE6283B211C994000228A4690468EE6D2
:10668000201C00F033FC203078E65846204207D129
:10669000044303992403240B89469046364B4AE66B
:1066A0003C432403240B344B45E6344B049E9B1B94
:1066B000382B06DD01230B4000249946A046002319
:1066C00039E61F2B25DC049C2D4D464660195246A9
:1066D00044468640DC4082405746301C2243DF401F
:1066E000441EA04102433B1C540709D00F20104018
:1066F000042805D0101D9042924152429B18021C62
:106700001D021AD501230B4000249946A0460123FF
:1067100011E61C48049C5546001BC540281C202B34
:1067200016D0194E5746A21997403A1C43461A43B1
:10673000531E9A4102430023D6E758075B02D20852
:106740001C0B01230B401043994680460023F2E5C1
:106750000022EBE780242403504601230443194020
:106760002403240B8946044BE5E5C046FF030000E3
:10677000FFFFFFFEFE070000FF07000002FCFFFF17
:106780001E040000E2FBFFFF3E040000F8B55F4678
:10679000564644464D46F0B40C034D00CF0F610AF7
:1067A000440F2143C4001803DE0F8046B44646461A
:1067B0005800760A530F3343D600C94A6D0DBA46C6
:1067C000400DB346904200D1EBE062460126724094
:1067D0009446674500D1A1E02F1A002F00DC08E1A4
:1067E00000283BD15846184300D0E8E0600709D0A4
:1067F0000F232340042B05D0231DA342A441644250
:1068000009191C1C0A0200D479E0B54B6A1C9A4293
:1068100000D109E1B34BE408194048070443490299
:106820005205012750460B0B520D07400020002156
:106830001B03201C1C0B0B0D1B05AB4D23435205EA
:1068400052081D4015436D006D08FF07291C394390
:106850003CBC90469946A246AB46F8BDA04885424E
:10686000C4D0802000040343382F00DDF0E01F2F48
:1068700000DD24E12020C01B1A1C5E468240FE4041
:10688000324394465A468240101C421E9041FB40BF
:10689000624602431F1CA21A9442A4416442C91BCF
:1068A000091B141C0A02A1D549024F0A002F00D16E
:1068B000C9E0381C00F01AFB021C083A1F2A00DD50
:1068C000BCE02821231C091A9740CB401F43944069
:1068D000954200DDAEE0551B691C1F2900DDDDE09F
:1068E0001F22551B3B1C221CAB40CA40AC40651EFE
:1068F000AC411343CF401C43391C002576E74807C1
:10690000E4086A0501275646C908520D374004437A
:10691000734B9D4249D009030B0B87E72A1A944613
:10692000002A00DC9BE0002855D06D48854200D14C
:106930005CE78020000403436046382800DD09E15D
:106940001F2800DD50E162462020801A1E1C864070
:10695000B1465E46D6404A4632435E468640904641
:10696000301C421E9041424602436046C340121909
:10697000A242A441644259180919141C080200D407
:1069800034E7574B01359D4200D142E1554B600839
:106990001940012323401C1C0443CB071C43490816
:1069A00024E71E4300D014E70FE70B1C234300D15C
:1069B000CFE180231B030B431B031B0B36E7013F77
:1069C000002F66D15E46A21B9442A4416442C91ABC
:1069D000091B141C66E75846184300D106E7012638
:1069E0007642B4446046002800D0CAE05E463219C0
:1069F000BEE7002F7AD1681C4005400D012800DC5D
:106A0000E3E05A46A21A9442BF41C81A7F42C71B0C
:106A10003E0200D492E05846041BA3459241591A05
:106A200052428F1AE24641E7534601271F40002495
:106A30000023FBE62B49AD1A3940D7E6271C28383E
:106A40008740002444E7201C00F050FA203033E750
:106A50005A461A43531E9A41D2B200271BE7002A16
:106A600000D0E1E0681C4605760D012E00DC91E0C7
:106A70001B4DA84200D1F7E05E463219A242A44164
:106A8000644259180919CC07520814434908051CD7
:106A9000ACE61348854200D0E6E6A7E62B1C1F3B78
:106AA0003E1CDE40331C202970D03F22551BAF40D6
:106AB0003C43601E84411C430021002596E6381C9F
:106AC00020381E1CC640301C202F61D04022D71B0E
:106AD000BB405A461A43531E9A4102430027DAE646
:106AE000FF070000FFFF7FFFFFFF0F80002D38D062
:106AF000B94DA84200D192E080252D047F42294360
:106B0000382F00DDAAE01F2F00DD2CE12025ED1B32
:106B10000E1CAE40B046261CFE404246AC4016431A
:106B2000651EAC413443F9405A46141BA3459241BB
:106B30005B1A5242991A051CE246B3E6131C3B430A
:106B4000141C002B00D0B1E60027002200250021F4
:106B50000024DDE65A461A43531E9A41D2B200235E
:106B600005E70D1C25435AD0FF43002F53D15A4649
:106B7000141BA3459241591A5242891A051CE24638
:106B800090E69548854200D0D6E62FE600278FE7AD
:106B900000239EE7081C2043002D00D0C3E00028FE
:106BA00000D1F6E05846184300D11FE658460219B6
:106BB000A242A441644259180919141C0A0200D4C3
:106BC00014E6864B0125194010E6081C2043002DD1
:106BD0003AD1002800D089E05946194300D1BFE0DE
:106BE000191C5C46E24601E6604620381A1CC24089
:106BF0006646101C202E00D1B0E04022921B93402C
:106C00005A461A43531E9A4102430023AFE6724D7F
:106C100000272A1C9BE7704DA84200D070E7191C82
:106C20005C46051CE246E1E5002D20D10D1C254304
:106C300075D0D543002D6FD15C445C459241591805
:106C400052428918051C99E6002835D15946194346
:106C5000DDD0191C5C46E2465F4DC7E50C43611E62
:106C60008C41E4B200215FE7051C021C6FE75A4D1E
:106C7000A84254D05542802216043143382D00DDFD
:106C800081E01F2D00DD91E02022561B0A1CB44636
:106C9000B240261CEE403243904662469440661E47
:106CA000B44142461443E9405C445C459241CB18F0
:106CB00052429918051C61E6584618434CD04807C3
:106CC000E40804438020C9080003014208D0DD081D
:106CD000054205D15946CA085C071443291CE246FF
:106CE000630FC9001943E4003B4D7FE55846184344
:106CF00000D17BE55E46A71BBC429241C81A5242B6
:106D0000801A06024CD55846041BA3459241591AD5
:106D10005242891AE24669E52F4A9042AED1191CC7
:106D20005C46051C62E5002836D05846184313D04F
:106D300080254807E408C9082D0304432942CFD021
:106D4000D8082842CCD15D46EA085C071443011CF0
:106D5000C6E70023002469E51F4D47E500234FE700
:106D600000270022F3E63D1C203D0E1CEE40351CA2
:106D7000202F2DD04026F71BB9400C43611E8C41BB
:106D80002C430021D0E60C43611E8C41E4B200216B
:106D90008AE7191C5C4629E5191C5C460E4D25E561
:106DA000031C3B43DCD0011C3C1C1FE52026764223
:106DB00076190A1CF2409046202D0BD04026751BF8
:106DC000A9400C43611E8C4145462C4300216BE7D2
:106DD0000021D2E70021F4E7FF070000FFFF7FFF5B
:106DE00070B50B1C124C09030E0B5900021C490D07
:106DF000DD0F0020A14211DD0E4881420FDC802012
:106E0000400306430C48401A1F280BDD0B4A521A58
:106E1000D640321C5042002D00D1101C70BD084BD2
:106E2000E818FBE7074BC240C9188E403243F1E730
:106E3000FE0300001D0400003304000013040000E2
:106E4000FFFFFF7FEDFBFFFF43001B0E5A1C4102BB
:106E5000D2B270B54C0AC50F012A17DDE0229200AC
:106E60006407090B9818002200231E0D221C34050C
:106E70000C431B4940054008214001434900490893
:106E8000ED070B1C2B43101C191C70BD002B15D1DA
:106E9000002C1CD0201C00F029F80A281ADC0B2139
:106EA000091A231CCB40191C031C15339C400D4BA5
:106EB0000903181A4005090B400DD4E7002C03D034
:106EC0006407090B0848CEE707480021CBE70020FC
:106ED0000021C8E7011C0B398C40211C0024E6E787
:106EE000FFFF0F8089030000FF0700001C21012322
:106EF0001B04984201D3000C10391B0A984201D39D
:106F0000000A08391B09984201D30009043902A27A
:106F1000105C40187047C0460403020201010101E1
:106F2000000000000000000070B50E4B0E4D002464
:106F3000ED1AAD101E1CAC4204D0A300F3589847C4
:106F40000134F8E700F0C0F9084B094D0024ED1AB0
:106F5000AD101E1CAC4204D0A300F3589847013476
:106F6000F8E770BDE8000020E8000020E8000020FD
:106F70000801002008B5034B011C186800F068F8F0
:106F800008BDC046E400002008B5034B011C18688A
:106F900000F016F808BDC046E400002010B500233C
:106FA000934203D0CC5CC4540133F9E710BD031CF9
:106FB0008218934202D019700133FAE7704700003B
:106FC00030B5002940D004390B68002B00DAC9180D
:106FD0001E4A1368141C002B02D14B60116033E071
:106FE00099420FD208680A189A4205D1136852686C
:106FF000C01808604A6000E04B60216024E08A42CB
:1070000003D8131C5A68002AF9D11D685C198C42F8
:107010000BD10968691858181960904214D1146886
:107020005268091919605A600EE08C4202D90C238B
:10703000036009E008680C18944203D11468526890
:10704000001908604A60596030BDC046280E002013
:1070500070B50323CD1C9D430835061C0C2D01D2B1
:107060000C2501E0002D3FDB8D423DD3204B1C68F9
:107070001A1C211C002913D00868431B0DD40B2BAC
:1070800002D90B60CC181EE08C4202D163681360F9
:107090001AE0486860600C1C16E00C1C4968E9E7BF
:1070A000144C2068002803D1301C00F06DF82060DB
:1070B000301C291C00F068F8431C15D0C41C0323A5
:1070C0009C4384420AD12560201C0B300722231DDB
:1070D0009043C31A0BD05A42E25008E0211A301CE8
:1070E00000F052F80130EED10C233360002070BD67
:1070F000280E0020240E0020174B10B51C68A36B2F
:10710000002B15D11820FFF735FF144BA063038027
:10711000134B4380134B8380134BC380134B03816A
:10712000052343810B2383810122002302614361F4
:10713000084B074AA46B2069616900F089F80122B5
:10714000002380185941206161614800400810BD4A
:107150002D7F954C2DF45158E40000200E33000093
:10716000CDABFFFF341200006DE6FFFFECDEFFFF4A
:1071700008B50A1C0349031C0868191C00F039F8FB
:1071800008BDC046E400002038B5074C0023051CAC
:10719000081C236000F07EF8431C03D12368002BF9
:1071A00000D02B6038BDC046300E0020031C0A788A
:1071B00001311A700133002AF9D170470023C25CF3
:1071C0000133002AFBD1581E704730B5031C002A3A
:1071D00007D00C7801335D1E013A2C700131002C70
:1071E000F5D19A18934203D0002119700133F9E7C1
:1071F00030BDF8B5061C0C1C151C002904D1111C4F
:10720000FFF726FF041C18E0002A03D1FFF7D8FE81
:107210002C1C12E000F013F8A8420ED2301C291CDE
:10722000FFF716FF071E07D0211C2A1CFFF7B6FE2A
:10723000301C211CFFF7C4FE3C1C201CF8BD043987
:107240000B68181F002B02DAC8581B18181F70474C
:107250009C460304F0B51B0C17043F0C150C1E1CB8
:10726000041C000C7E436B4347434543FB18300C22
:107270001818874202D980235B02ED18030CED1821
:1072800063465C434A433604360CA1180004801957
:107290004919F0BD094A1368002B0CD0181869462B
:1072A000884202D81060181C7047054B0C22012040
:1072B0001A604042F8E7034B1360EFE72C0E002002
:1072C000300E0020340E0020F8B5C046F8BC08BCD3
:1072D0009E467047F8B5C046F8BC08BC9E4670474D
:1072E0000102030405060708010203040506070856
:1072F000564D4450565F317C315F564D4450560DCB
:107300000A00545052532047617465776179206EAA
:107310006F646520696E697469616C697A696E670A
:107320000A0052464D363920726164696F20696ED9
:107330006974206661696C65640052464D36392077
:10734000726164696F20696E6974204F4B2100730C
:1073500065744672657175656E6379206661696CE6
:1073600065640052464D363920726164696F204071
:1073700000204D487A007C00696E69740053656E88
:1073800064696E672000476F742061207265706CBD
:10739000793A200052656365697665206661696C9B
:1073A0006564004E6F207265706C792C20697320C3
:1073B000616E6F746865722052464D3639206C6973
:1073C0007374656E696E673F000000000000000086
:1073D00000000000000000003B2400003D3C0000D5
:1073E0003D3C00003D3C00003D3C00007D24000091
:1073F00095240000D9240000A924000003250000E2
:107400003F240000472400004B2400004F240000CC
:10741000532400005724000043240000612400008E
:10742000672400006D24000073240000792400000C
:1074300000000000000000003D3C00006D25000041
:107440006F2500003D3C00003D3C00007125000020
:1074500075250000792500000000000000000000F4
:10746000A1250000B1250000C1250000E125000094
:10747000D125000071250000752500007925000048
:107480000000000000000000C72600003D3C000096
:107490003D3C00003D3C00003D3C00007D240000E0
:1074A00095240000D9240000A92400000325000031
:1074B0003F240000472400004B2400004F2400001C
:1074C00053240000572400004324000061240000DE
:1074D000672400006D24000073240000792400005C
:1074E0000D0E131516191A1C232526292A2C3234A1
:1074F0002DD4003E800052F4F4D0003415004FF437
:10750000F4D0001A0B009DF4F4D0000D05013BF4FB
:10751000F4D00006830275F3F3D000034104EAF2CD
:10752000F2D000022C07AEE2E2D00001000800E138
:10753000E1D00000801000E0E0D0000240033342C0
:1075400042D0013E800052F4F5D0013415004FF4D2
:10755000F4D0011A0B009DF4F4D0010D05013BF4A9
:10756000F4D00106830275F3F3D001034104EAF27B
:10757000F2D001022C07AEE2E2D00101000800E1E6
:10758000E1D00100801000E0E0D00102400333426E
:1075900042D0087D0000108888D008682B0010F1C8
:1075A000F1D00834150010F5F5D0081A0B0010F4CE
:1075B000F4D0080D050010F3F3D00806830010F294
:1075C000F2D00803E80010E2E2D000000000000062
:1075D000000000000000000055300000EB2D00000E
:1075E000032B0000432E0000C72A00007D2400006A
:1075F00095240000D9240000A924000003250000E0
:107600003F240000472400004B2400004F240000CA
:10761000532400005724000043240000612400008C
:10762000672400006D24000073240000E92A000094
:10763000564D4450455F003A323A005F564D445033
:107640004500564D4450435F005F564D4450430D36
:107650000A004572726F723A20417474656D7074DD
:1076600020746F20736574206120726561642D6FD2
:107670006E6C79207661726961626C65206F722030
:10768000646174612074797065206E6F7420737505
:1076900070706F727465640D0A00000000000000D5
:1076A0000B0000000200000004000000FF00FFFFCC
:1076B000FFFF0B00000000000A00000002000000B5
:1076C00004000000FF00FFFFFFFF0A0000000000B1
:1076D0000E0000000800000004000000FF00FFFF93
:1076E000FFFF0E0000000000090000000400000081
:1076F0001C000000FF000100010009000000000064
:1077000008000000040000001C000000FF00000052
:1077100000001000000000000F0000000400000046
:107720001C000000FF00010301030F000000000027
:1077300014000000050000002C000000FF00020003
:107740000200040000000000150000000800000016
:1077500004000000FF00FFFFFFFF05000000000025
:1077600006000000040000001E00000006000001EA
:1077700000010600000000000700000004000000F7
:107780001E000000070001010101070000000000C9
:1077900012000000040000001C000000FF000003B5
:1077A00000030200000000001000000004000000C0
:1077B0001C000000FF0000020002000000000000AA
:1077C00013000000050000002C000000FF00030073
:1077D000030003000000000011000000040000008E
:1077E0001C000000FF000102010201000000000077
:1077F0000200000001000000020000000000FFFF86
:10780000FFFF02000100000008000000010000006E
:10781000180000000200000400040800010000003D
:10782000090000000100000018000000030001042E
:107830000104090000000000040000000100000035
:10784000000000000400FFFFFFFF04000000000034
:107850000500000001000000000000000500FFFF1F
:10786000FFFF050001000000020000000100000011
:10787000000000000A00FFFFFFFF02000000000000
:1078800006000000010000001E00000006000001CC
:1078900000010600000000000700000001000000D9
:1078A0001E000000070001010101070000000000A8
:1078B00008000000010000001E0000001000000091
:1078C000000010000000000009000000010000009E
:1078D0001E0000001100010001000900000000006E
:1078E0000B00000001000000060000001300FFFF75
:1078F000FFFF0B00000000000A0000000100000074
:10790000060000001200FFFFFFFF0A000000000059
:10791000160000000200000004000000FF00FFFF4E
:10792000FFFF06000000000017000000020000003A
:1079300004000000FF00FFFFFFFF07000000000041
:107940000C0000000300000004000000FF00FFFF27
:10795000FFFF0C00010000000A000000030000000F
:1079600004000000FF00FFFFFFFF0A00010000000D
:107970000B0000000300000004000000FF00FFFFF8
:10798000FFFF0B0001000000030000000B000000DF
:1079900004000000FF00FFFFFFFFFF0000000000E9
:1079A0001B0000000B00000004000000FF00FFFFB0
:1079B000FFFFFF00000000001C00000006000000A8
:1079C00000000000FF00FFFFFFFFFF0000000000BD
:1079D000180000000600000000000000FF00FFFF8C
:1079E000FFFFFF000000000019000000060000007B
:1079F00000000000FF00FFFFFFFFFF00000000008D
:107A00000E0000000200000004000000FF00FFFF65
:107A1000FFFFFF000000000008000000030000005E
:107A200004000000FF00FFFFFFFFFF000000000058
:107A3000090000000300000004000000FF00FFFF39
:107A4000FFFFFF00000000000D0000000800000024
:107A500004000000FF00FFFFFFFF0D00000000001A
:107A600006000000040000001E00000006000001E7
:107A700000010600000000000300000001000000FB
:107A800002000000FF00FFFFFFFFFF0000000000FA
:107A90000200000001000000020000001400FFFFCF
:107AA000FFFF02006E616E00696E66006F76660011
:107AB0002E00000000000000000000000000000098
:107AC00065410000813C0000474100005B4100002F
:107AD000514100003D4100001D41000041420000B5
